:100000000C9430010C9443070C9418070C94ED06E3
:100010000C94C2060C9497060C946C060C94410642
:100020000C9416060C9461010C9461010C9461010E
:100030000C9461010C9461010C9461010C946101B8
:100040000C9461010C9461010C9461010C946101A8
:100050000C9461010C9461010C9461010C94CC0529
:100060000C9461010C94F8070C94CE070C94610178
:100070000C9461010C9461010C9461010C94610178
:100080000C9461010C9461010C9461010C94610168
:100090000C9461010C9461010C9461010C94610158
:1000A0000C9461010C9461010C9461010C94610148
:1000B0000C9461010C9461010C9461010C94610138
:1000C0000C9461010C9461010C9461010C949807EB
:1000D0000C946E070C9461010C9461010C94610105
:1000E0000C9461010C94B0030C94F3010C94F7018F
:1000F0000C9478020C94EF010C94A6020C94BF02AD
:100100000C94E5010C94DF010C94FD030C946E0338
:100110000C9401020C94D0010C94BA010C94FD01D2
:100120000C9479020C94CE020C94D4010C942E08F9
:100130000C94DC010C9489050C9405020C940B02C0
:100140000C94D8010C9460030C94E9010C94B50252
:100150000C94BF010C940F02000021002400270022
:100160002A002D00300033000101000004010701C6
:100170000A0100002200250028002B002E0031007B
:10018000340002010000050108010B010505050509
:10019000070508080808020202020A0A08080404FF
:1001A000040401010101010101010303030303032D
:1001B0000303040707070C0C0C0C0C0C0C0C0202BC
:1001C000020206060606060606060B0B0B0B0B0BB9
:1001D0000B0B010210202008081020401020408046
:1001E00002010201080402010102040810204080FB
:1001F0008040201008040201800402018040201089
:1002000008040201080402010102040810204080D1
:10021000010204081020408000000A0B02090C0DA6
:100220000E080703040100000000000000000000A9
:1002300000000000000000000000000000000000BE
:10024000000000001211100000000000000000007B
:1002500000000000000000000000000000002E0868
:1002600011241FBECFEFD1E2DEBFCDBF00E00CBF37
:1002700024E0AAE5B2E001C01D92A235B207E1F781
:1002800012E0A0E0B2E0E2E0F0E200E00BBF02C06A
:1002900007900D92AA35B107D9F711E0C0E3D1E07C
:1002A00000E006C021970109802FFE010E94BF0DCA
:1002B000CF32D10780E00807A9F70E94C5080C9447
:1002C000FF0F0C940000FC01A089B18982E08C939F
:1002D000A485B5851C92A685B7858FEC8C93108E6E
:1002E000A489B58986E08C93A289B3898C918061B9
:1002F0008C93A289B3898C9188608C93A289B389ED
:100300008C9180688C930288F389E02D80818F7DA9
:1003100080830895282F30E0F901E85EFD4F949125
:10032000F901EE52FE4F449124573E4FF9012491BA
:10033000222309F434C0992311F191509231F8F439
:10034000E92FF0E08827E855FE4F8F4F0C94BF0D42
:10035000D801DC01BA01D001D401BF01DF01E50100
:10036000E901EF01F301F701FD010102BF010502FF
:100370000B020F02809180008F7780938000E22F24
:10038000F0E0EE0FFF1FEE58FE4FA591B4918FB72E
:10039000EC91611148C040954E234C938FBF089556
:1003A000809180008F7DE9CF80918000877FE5CFAD
:1003B00084B58F7784BDE3CF84B58F7DFBCF8091EB
:1003C000B0008F778093B000DACF8091B0008F7D3E
:1003D000F9CF809190008F7780939000D0CF80915B
:1003E00090008F7DF9CF80919000877FF5CF80912D
:1003F000A0008F778093A000C2CF8091A0008F7D56
:10040000F9CF8091A000877FF5CF809120018F7771
:1004100080932001B4CF809120018F7DF9CF80910E
:100420002001877FF5CF4E2BB8CF3FB7F89480914E
:10043000E0029091E102A091E202B091E30226B5C0
:10044000A89B05C02F3F19F00196A11DB11D3FBF0C
:10045000BA2FA92F982F8827BC01CD01620F711DDB
:10046000811D911D42E0660F771F881F991F4A95D5
:10047000D1F708958F929F92AF92BF92CF92DF9261
:10048000EF92FF924B015C010E9415026B017C010F
:100490000E9415026C197D098E099F09683E734000
:1004A00081059105A8F321E0821A9108A108B108FD
:1004B00088EEC80E83E0D81EE11CF11C8114910463
:1004C000A104B10429F7FF90EF90DF90CF90BF9087
:1004D000AF909F908F9008952FB7F8946091DC02B1
:1004E0007091DD028091DE029091DF022FBF0895AE
:1004F0000895AF92BF92CF92DF92EF92FF920F9347
:100500001F93CF93DF936C017B018B01040F151FA9
:10051000EB015E01AE18BF08C017D10759F0699111
:10052000D601ED91FC910190F081E02DC601199565
:10053000892B79F7C501DF91CF911F910F91FF9022
:10054000EF90DF90CF90BF90AF9008951092CB02C4
:100550001092CC021092CD021092CE0261E088E09F
:100560000E948A011092CA0208958091C802909157
:10057000C90201969093C9028093C8020895FC01B4
:10058000538D448D252F30E0842F90E0821B930BF8
:10059000541710F0CF96089501970895FC01918D9E
:1005A000828D981761F0A28DAE0FBF2FB11D5D96A1
:1005B0008C91928D9F5F9F73928F90E008958FEF43
:1005C0009FEF08958F929F92AF92BF92EF92FF920A
:1005D0000F931F93CF93DF937B018C01D0E0C0E09A
:1005E0000E946C026093EC027093ED028093EE0225
:1005F0009093EF0284EE92E00E94CE0297FF27C014
:100600000E946C028090EC029090ED02A090EE02AD
:10061000B090EF02681979098A099B098090E80275
:100620009090E902A090EA02B090EB02681579057B
:100630008A059B05F8F2CE01DF91CF911F910F91B2
:10064000FF90EF90BF90AF909F908F900895F8012A
:1006500081938F012196EC16FD0611F6ECCFCF9316
:10066000DF9300D01F92CDB7DEB719821A821B82AA
:100670001C8284E690E0A0E0B0E08093E8029093D2
:10068000E902A093EA02B093EB0264E070E0CE01CD
:1006900001960E94E2028981813051F48A818F3F64
:1006A00039F48B818F3F21F481E09C819F3F09F0D9
:1006B00080E00F900F900F900F90DF91CF910895F1
:1006C000FC01918D828D981731F0828DE80FF11D1C
:1006D000858D90E008958FEF9FEF0895FC01918D37
:1006E000228D892F90E0805C9F4F821B91098F7330
:1006F0009927089584EE92E00E946E0321E0892BF1
:1007000009F420E0822F089581E893E00E946E03AF
:1007100021E0892B09F420E0822F0895FC01A48DAB
:10072000A80FB92FB11DA35ABF4F2C91848D90E013
:1007300001968F739927848FA689B7892C93A089F6
:10074000B1898C91837080648C93938D848D981380
:1007500006C00288F389E02D80818F7D8083089513
:10076000EF92FF920F931F93CF93DF93EC0181E001
:10077000888F9B8D8C8D98131AC0E889F9898081A8
:1007800085FF15C09FB7F894EE89FF896083E889DB
:10079000F98980818370806480839FBF81E090E0CD
:1007A000DF91CF911F910F91FF90EF900895F62E5A
:1007B0000B8D10E00F5F1F4F0F731127E02E8C8DF4
:1007C0008E110CC00FB607FCFACFE889F989808139
:1007D00085FFF5CFCE010E948E03F1CFEB8DEC0F9C
:1007E000FD2FF11DE35AFF4FF0829FB7F8940B8F56
:1007F000EA89FB8980818062CFCFCF93DF93EC01C0
:10080000888D8823B9F0AA89BB89E889F9898C91F8
:1008100085FD03C0808186FD0DC00FB607FCF7CFB4
:100820008C9185FFF2CF808185FFEDCFCE010E94B4
:100830008E03E9CFDF91CF91089580E090E0892B7E
:1008400029F00E94840381110E94000080E090E062
:10085000892B49F080E090E0892B29F00E9400006C
:1008600081110E94000080E090E0892B29F00E9415
:100870007A0381110E94000080E090E0892B49F00A
:1008800080E090E0892B29F00E94000081110C94F7
:10089000000008956115710551F0FB0101900020E1
:1008A000E9F73197AF01461B570B0C94790290E0A2
:1008B00080E00895CF93DF93EC0184EE92E00E94F4
:1008C0006E03892B29F084EE92E00E94CE02F5CFD0
:1008D000BE0184EE92E00E944A046FEF84EE92E043
:1008E0000E94B0036FEF84EE92E00E94B0036FEFBE
:1008F00084EE92E0DF91CF910C94B0030F931F939D
:10090000CF93DF93EC0188819981009759F02A8178
:100910003B812617370730F081E0DF91CF911F919F
:100920000F9108958B016F5F7F4F0E940E0F00970C
:1009300059F0998388831B830A832C813D81232B63
:1009400059F7FC011082E8CF80E0E7CFEF92FF92E9
:100950000F931F93CF93DF93FB0101900020E9F7E2
:100960003197E61BF70B6115710541F480E0DF91CB
:10097000CF911F910F91FF90EF9008953097E1F084
:100980007B018C01DC011496CD91DC91CE0FDF1F31
:10099000BE010E947E04882349F3F8012081318141
:1009A00084819581B701820F931F0E94F80FD801AF
:1009B0001596DC93CE93149781E0D9CFEF92FF92F6
:1009C0000F931F93CF93DF93CDB7DEB72E970FB65C
:1009D000F894DEBF0FBECDBF7C018B011A8619864D
:1009E0001C861B861E861D8664E070E0CE0109967B
:1009F0000E947E0429853A8581117FC02115310529
:100A000019F0C9010E94850E1A8619861E861D8658
:100A10001C861B86F701628173816115710521F0C7
:100A2000CE0109960E94A60463E372E0CE01099606
:100A30000E94A60489859A850E945A04CE010196D7
:100A400028E0FC0111922A95E9F744E650E060E0C5
:100A500070E04093E8025093E9026093EA027093D9
:100A6000EB0268E070E00E94E202089709F04FC0D4
:100A70008981813709F04BC08E818F3F09F047C0D3
:100A80008F818F3F09F043C088858F3F09F03FC0B9
:100A90002D818C8190E0B0E0A0E0DC0199278827CF
:100AA000B22B2A81822B4B8150E0542F4427052EF4
:100AB000000C660B770B842B952BA62BB72BF8011C
:100AC00080839183A283B38362E372E081E893E041
:100AD0000E944A0411E089859A850E94850E812F23
:100AE0002E960FB6F894DEBF0FBECDBFDF91CF912B
:100AF0001F910F91FF90EF90089584E090E09E8702
:100B00008D876EE272E0C9010E94F80F83CF10E07A
:100B1000E2CFCF93DF9300D01F92CDB7DEB7EAE5E7
:100B2000F2E084E6DF011D928A95E9F7BE016F5F6E
:100B30007F4F82E494E00E94DE046FEC72E08AE270
:100B400094E00E94DE048091CF029091D002A091A7
:100B5000D102B091D202892B8A2B8B2B79F089811B
:100B60009A81AB81BC81892B8A2B8B2B71F060E041
:100B700088E00E948A0181E08093CA020F900F9062
:100B80000F900F90DF91CF91089561E088E00E946F
:100B90008A011092CA02F2CF1F920F920FB60F92E3
:100BA00011242F933F938F939F93AF93BF93809183
:100BB000DC029091DD02A091DE02B091DF02309163
:100BC000DB0223E0230F2D3758F50196A11DB11D3F
:100BD0002093DB028093DC029093DD02A093DE027F
:100BE000B093DF028091E0029091E102A091E202D5
:100BF000B091E3020196A11DB11D8093E002909394
:100C0000E102A093E202B093E302BF91AF919F9102
:100C10008F913F912F910F900FBE0F901F901895BD
:100C200026E8230F0296A11DB11DD2CF1F920F926D
:100C30000FB60F9211240BB60F922F933F934F9341
:100C40005F936F937F938F939F93AF93BF93EF9334
:100C5000FF93E0911402F09115021995FF91EF9125
:100C6000BF91AF919F918F917F916F915F914F91C4
:100C70003F912F910F900BBE0F900FBE0F901F90C2
:100C800018951F920F920FB60F9211240BB60F9268
:100C90002F933F934F935F936F937F938F939F9384
:100CA000AF93BF93EF93FF93E0911202F091130281
:100CB0001995FF91EF91BF91AF919F918F917F9186
:100CC0006F915F914F913F912F910F900BBE0F90BD
:100CD0000FBE0F901F9018951F920F920FB60F9294
:100CE00011240BB60F922F933F934F935F936F9303
:100CF0007F938F939F93AF93BF93EF93FF93E09175
:100D00000802F09109021995FF91EF91BF91AF91FF
:100D10009F918F917F916F915F914F913F912F9113
:100D20000F900BBE0F900FBE0F901F9018951F9243
:100D30000F920FB60F9211240BB60F922F933F9381
:100D40004F935F936F937F938F939F93AF93BF93D3
:100D5000EF93FF93E0910602F09107021995FF913E
:100D6000EF91BF91AF919F918F917F916F915F9123
:100D70004F913F912F910F900BBE0F900FBE0F9090
:100D80001F9018951F920F920FB60F9211240BB659
:100D90000F922F933F934F935F936F937F938F9314
:100DA0009F93AF93BF93EF93FF93E0911002F09165
:100DB00011021995FF91EF91BF91AF919F918F9182
:100DC0007F916F915F914F913F912F910F900BBE4B
:100DD0000F900FBE0F901F9018951F920F920FB695
:100DE0000F9211240BB60F922F933F934F935F9363
:100DF0006F937F938F939F93AF93BF93EF93FF93E3
:100E0000E0910E02F0910F021995FF91EF91BF91C1
:100E1000AF919F918F917F916F915F914F913F9192
:100E20002F910F900BBE0F900FBE0F901F90189533
:100E30001F920F920FB60F9211240BB60F922F93A1
:100E40003F934F935F936F937F938F939F93AF9352
:100E5000BF93EF93FF93E0910C02F0910D0219956F
:100E6000FF91EF91BF91AF919F918F917F916F9182
:100E70005F914F913F912F910F900BBE0F900FBE3E
:100E80000F901F9018951F920F920FB60F9211247A
:100E90000BB60F922F933F934F935F936F937F9374
:100EA0008F939F93AF93BF93EF93FF93E0910A02C9
:100EB000F0910B021995FF91EF91BF91AF919F9126
:100EC0008F917F916F915F914F913F912F910F90F3
:100ED0000BBE0F900FBE0F901F9018951F920F9290
:100EE0000FB60F9211240BB60F922F933F934F938F
:100EF0005F936F937F938F939F93AF93BF93EF9382
:100F0000FF9384EE92E00E948E03FF91EF91BF91D8
:100F1000AF919F918F917F916F915F914F913F9191
:100F20002F910F900BBE0F900FBE0F901F90189532
:100F30001F920F920FB60F9211240BB60F922F93A0
:100F40008F939F93EF93FF93E091F402F091F5025A
:100F50008081E091FA02F091FB0282FD1DC0908138
:100F60008091FD028F5F8F732091FE02821741F006
:100F7000E091FD02F0E0EC51FD4F958F8093FD0272
:100F8000FF91EF919F918F912F910F900BBE0F903A
:100F90000FBE0F901F9018958081F2CF1F920F9275
:100FA0000FB60F9211240BB60F922F933F934F93CE
:100FB0005F936F937F938F939F93AF93BF93EF93C1
:100FC000FF9381E893E00E948E03FF91EF91BF9120
:100FD000AF919F918F917F916F915F914F913F91D1
:100FE0002F910F900BBE0F900FBE0F901F90189572
:100FF0001F920F920FB60F9211240BB60F922F93E0
:101000008F939F93EF93FF93E0919103F09192035D
:101010008081E0919703F091980382FD1DC090813B
:1010200080919A038F5F8F7320919B03821741F009
:10103000E0919A03F0E0EF57FC4F958F80939A036D
:10104000FF91EF919F918F912F910F900BBE0F9079
:101050000FBE0F901F9018958081F2CFE4EEF2E062
:101060001382128248EE53E060E070E044835583BF
:101070006683778380E292E09183808325ED30E080
:101080003587248724ED30E03787268720ED30E050
:10109000318B208B21ED30E0338B228B22ED30E041
:1010A000358B248B26ED30E0378B268B118E128EFC
:1010B000138E148EE1E8F3E0138212824483558389
:1010C000668377839183808385EC90E0958784871E
:1010D00084EC90E09787868780EC90E0918B808B02
:1010E00081EC90E0938B828B82EC90E0958B848BEB
:1010F00086EC90E0978B868B118E128E138E148E59
:10110000E2E4F4E081E08083818328E332E033830A
:101110002283158214821186108613861286178206
:101120001682E6E3F4E0808395E091832CE332E0DD
:1011300033832283158214821186108613861286C9
:1011400017821682EAE2F4E0808393E091832FE332
:1011500032E033832283158214821186108613862F
:10116000128617821682EEE1F4E0808384E08183A8
:1011700082E492E093838283158214821186108622
:1011800013861286178216820895CF93DF93CDB708
:10119000DEB760970FB6F894DEBF0FBECDBF789470
:1011A00084B5826084BD84B5816084BD85B582606C
:1011B00085BD85B5816085BD80916E00816080931D
:1011C0006E00109281008091810082608093810086
:1011D0008091810081608093810080918000816096
:1011E000809380008091B10084608093B1008091F1
:1011F000B00081608093B000809191008260809304
:101200009100809191008160809391008091900085
:101210008160809390008091A10082608093A10002
:101220008091A10081608093A1008091A0008160E5
:101230008093A000809121018260809321018091A0
:101240002101816080932101809120018160809340
:10125000200180917A00846080937A0080917A00E6
:10126000826080937A0080917A00816080937A0016
:1012700080917A00806880937A001092C10081E8A2
:1012800093E00E94630184EE92E00E94630182E396
:1012900092E00E945A0485E492E00E945A040E945F
:1012A0002F038DE492E00E945A040E942F0389E8E4
:1012B00095E0909347048093460482E494E09093F1
:1012C00049048093480481E893E00E94630186EA20
:1012D00092E090933B0480933A0486E394E09093E9
:1012E0003D0480933C04EAEDF1E02491E4E9F1E06F
:1012F0008491882399F090E0880F991FFC01E85AA7
:10130000FE4FA591B491FC01EE58FE4F859194914A
:101310008FB7F894EC91E22BEC938FBFE4EDF1E002
:101320002491EEE8F1E084918823C9F090E0880FE1
:10133000991FFC01E85AFE4F45915491FC01EE586B
:10134000FE4FA591B4919FB7F894FA018081209542
:10135000822380838C91E22FE823EC939FBF61E08E
:1013600088E00E948A0185EB92E0909307028093C7
:10137000060280916A00836080936A00EC9A0E9462
:101380006C026093D7027093D8028093D902909335
:10139000DA029AE0B92E8E010F5F1F4F78940E94F7
:1013A0006C02C090D702D090D802E090D902F090A1
:1013B000DA026C197D098E099F096093D30270933C
:1013C000D4028093D5029093D6020E946C0260935F
:1013D000D7027093D8028093D9029093DA0284EEF8
:1013E00092E00E946E03181619060CF06DC06AE0B8
:1013F00070E080E090E00E943A0284EE92E00E9469
:10140000CE02F82EF5E68F13EACF84EE92E00E942A
:101410006E03069724F3F092BE028FEBE82E82E073
:10142000F82E84EE92E00E94CE02F70181937F01B4
:10143000F5ECEF16F2E0FF06A1F71092C5028091DD
:10144000C2028F3F61F68091C3028F3F41F68091C7
:10145000C4028F3F21F69091C0022091BF02E0E0CC
:10146000F2E0A191B191109709F4B9CF8C912813B2
:10147000F8CF11968C9111979813F3CF4091C10238
:1014800050E070E060E0413051056105710561F4A4
:101490001496ED91FC911597309709F4A0CF16960C
:1014A0008D919C9119959BCF452B462B472B09F08D
:1014B00096CF1896ED91FC911997309709F48FCF3C
:1014C0001A968D919C91EECF6FEC72E08AE294E0D7
:1014D0000E94DE046091CB027091CC028091CD021B
:1014E0009091CE020E946C0D6B01F8018B2D119230
:1014F0008A95E9F71C861B861E861D86188A1F861C
:1015000070E060E0CE010B960E947E042B853C8546
:101510008111B2C02115310519F0C9010E94850E53
:101520001C861B86188A1F861E861D864AE0B80107
:10153000C6010E94440B6091200470912104611542
:10154000710521F0CE010B960E94A60464E572E0BD
:10155000CE010B960E94A604B801CE010B960E9404
:10156000A6048B859C850E945A040E942F038B85BC
:101570009C850E94850E8091CA02882309F479C057
:101580001092C9021092C802789468EE73E080E06D
:1015900090E00E943A02F8946091C8027091C902EA
:1015A000072E000C880B990B0E94700B23E333E38A
:1015B00043EE50E40E94FA0C20E030E040E752E4B1
:1015C0000E94FA0C6B017C016091D3027091D402ED
:1015D0008091D5029091D60228EE33E040E050E0B1
:1015E0000E94A00DCA01B9010E94700B9B01AC01C1
:1015F000C701B6010E94CF0B2091CB023091CC02E3
:101600004091CD025091CE020E948E0C6B017C0164
:10161000C092CB02D092CC02E092CD02F092CE02E8
:101620006091CF027091D0028091D1029091D2024C
:101630000E946E0B9B01AC01C701B6010E949B0D7D
:101640001816BCF461E088E00E948A0160E08DE039
:101650000E948A0120E030E0A901C701B6010E9482
:10166000CF0B6093CB027093CC028093CD0290930A
:10167000CE020E941D0492CE188A1F8662E372E099
:10168000C9010E94F80F52CFBB27FB015527AA279B
:10169000880F991FAA1FA41710F0A41B83955051FF
:1016A000B9F7A05DAA3308F0A95DA193009779F777
:1016B000B111B1931192CB010C945E0BDC01FC01D2
:1016C000672F71917723E1F7329704C07C916D9376
:1016D00070836291AE17BF07C8F30895E89409C0FC
:1016E00097FB3EF490958095709561957F4F8F4F55
:1016F0009F4F9923A9F0F92F96E9BB279395F6956B
:10170000879577956795B795F111F8CFFAF4BB0FE8
:1017100011F460FF1BC06F5F7F4F8F4F9F4F16C04C
:10172000882311F096E911C0772321F09EE8872FD6
:10173000762F05C0662371F096E8862F70E060E092
:101740002AF09A95660F771F881FDAF7880F96950B
:10175000879597F90895990F0008550FAA0BE0E8AF
:10176000FEEF16161706E807F907C0F01216130663
:10177000E407F50798F0621B730B840B950B39F4A3
:101780000A2661F0232B242B252B21F408950A2609
:1017900009F4A140A6958FEF811D811D08950E9437
:1017A000E20B0C94530C0E94450C38F00E944C0C38
:1017B00020F0952311F00C943C0C0C94420C112455
:1017C0000C94870C0E94640C70F3959FC1F3950FE5
:1017D00050E0551F629FF001729FBB27F00DB11DB5
:1017E000639FAA27F00DB11DAA1F649F6627B00D45
:1017F000A11D661F829F2227B00DA11D621F739F2E
:10180000B00DA11D621F839FA00D611D221F749F3B
:101810003327A00D611D231F849F600D211D822F82
:10182000762F6A2F11249F5750409AF0F1F08823A9
:101830004AF0EE0FFF1FBB1F661F771F881F9150D6
:101840005040A9F79E3F510580F00C943C0C0C943D
:10185000870C5F3FE4F3983ED4F3869577956795C0
:10186000B795F795E7959F5FC1F7FE2B880F911D00
:101870009695879597F9089597F99F6780E870E0A6
:1018800060E008959FEF80EC089500240A941616F6
:10189000170618060906089500240A94121613065E
:1018A000140605060895092E0394000C11F48823EC
:1018B00052F0BB0F40F4BF2B11F460FF04C06F5F08
:1018C0007F4F8F4F9F4F089557FD9058440F551FDE
:1018D00059F05F3F71F04795880F97FB991F61F0B2
:1018E0009F3F79F087950895121613061406551F29
:1018F000F2CF4695F1DF08C0161617061806991F95
:10190000F1CF86957105610508940895E894BB2789
:1019100066277727CB0197F908955058BB27AA2748
:101920000E94A50C0C94530C0E94450C38F00E94A8
:101930004C0C20F039F49F3F19F426F40C94420C1F
:101940000EF4E095E7FB0C943C0CE92F0E94640C2C
:1019500058F3BA17620773078407950720F079F4E4
:10196000A6F50C94860C0EF4E0950B2EBA2FA02D44
:101970000B01B90190010C01CA01A0011124FF273C
:10198000591B99F0593F50F4503E68F11A16F04037
:10199000A22F232F342F4427585FF3CF4695379536
:1019A0002795A795F0405395C9F77EF41F16BA0BFB
:1019B000620B730B840BBAF09150A1F0FF0FBB1FA9
:1019C000661F771F881FC2F70EC0BA0F621F731FF2
:1019D000841F48F4879577956795B795F7959E3F4F
:1019E00008F0B0CF9395880F08F09927EE0F9795E0
:1019F000879508950E940E0D0C94530C0E944C0C78
:101A000058F00E94450C40F029F45F3F29F00C94F7
:101A10003C0C51110C94870C0C94420C0E94640CE9
:101A200068F39923B1F3552391F3951B550BBB270D
:101A3000AA2762177307840738F09F5F5F4F220F52
:101A4000331F441FAA1FA9F335D00E2E3AF0E0E849
:101A500032D091505040E695001CCAF72BD0FE2F93
:101A600029D0660F771F881FBB1F26173707480727
:101A7000AB07B0E809F0BB0B802DBF01FF279358DF
:101A80005F4F3AF09E3F510578F00C943C0C0C945B
:101A9000870C5F3FE4F3983ED4F38695779567957E
:101AA000B795F7959F5FC9F7880F911D9695879514
:101AB00097F90895E1E0660F771F881FBB1F621733
:101AC00073078407BA0720F0621B730B840BBA0BF1
:101AD000EE1F88F7E09508950E946C0C88F09F57E0
:101AE00098F0B92F9927B751B0F0E1F0660F771F42
:101AF000881F991F1AF0BA95C9F714C0B13091F038
:101B00000E94860CB1E008950C94860C672F782F04
:101B10008827B85F39F0B93FCCF3869577956795FC
:101B2000B395D9F73EF490958095709561957F4F68
:101B30008F4F9F4F08950E94AB0B08F48FEF0895CD
:101B4000052E97FB1EF400940E94B70D57FD07D099
:101B50000E94C70D07FC03D04EF40C94B70D5095AE
:101B60004095309521953F4F4F4F5F4F0895909589
:101B70008095709561957F4F8F4F9F4F0895EE0F21
:101B8000FF1F881F8BBF0790F691E02D1994A1E2EB
:101B90001A2EAA1BBB1BFD010DC0AA1FBB1FEE1FE7
:101BA000FF1FA217B307E407F50720F0A21BB30B32
:101BB000E40BF50B661F771F881F991F1A9469F7AE
:101BC00060957095809590959B01AC01BD01CF010A
:101BD00008950F931F93CF93DF938230910510F4F4
:101BE00082E090E0E0915004F091510430E020E078
:101BF000B0E0A0E0309799F42115310509F44AC00E
:101C0000281B390B24303105D8F58A819B81611559
:101C1000710589F1FB0193838283FE0111C040812C
:101C200051810281138148175907E0F0481759077D
:101C300099F4109761F012960C93129713961C93D7
:101C40003296CF01DF91CF911F910F9108950093AC
:101C5000500410935104F4CF2115310551F042176F
:101C6000530738F0A901DB019A01BD01DF01F8013A
:101C7000C1CFEF01F9CF9093510480935004CDCFA1
:101C8000FE01E20FF31F81939193225031093983B2
:101C90002883D7CF20914E0430914F04232B41F459
:101CA000209118023091190230934F0420934E0472
:101CB00020911602309117022115310541F42DB7FC
:101CC0003EB740911A0250911B02241B350BE09144
:101CD0004E04F0914F04E217F307A0F42E1B3F0BC4
:101CE0002817390778F0AC014E5F5F4F241735078E
:101CF00048F04E0F5F1F50934F0440934E04819362
:101D000091939FCFF0E0E0E09CCFCF93DF930097DB
:101D1000E9F0FC01329713821282A0915004B09135
:101D20005104ED0130E020E01097A1F420813181D1
:101D3000820F931F20914E0430914F0428173907CA
:101D400009F061C0F0934F04E0934E04DF91CF910E
:101D50000895EA01CE17DF07E8F54A815B819E010D
:101D600041155105B1F7E901FB83EA834991599186
:101D7000C40FD51FEC17FD0761F480819181029695
:101D8000840F951FE90199838883828193819B83C6
:101D90008A83F0E0E0E012968D919C911397009772
:101DA000B9F52D913C911197CD010296820F931FA9
:101DB00020914E0430914F042817390739F6309797
:101DC00051F51092510410925004B0934F04A09317
:101DD0004E04BCCFD383C28340815181840F951FB1
:101DE000C817D90761F44E5F5F4F88819981480F0A
:101DF000591F518340838A819B819383828321155C
:101E0000310509F0B0CFF0935104E09350049ECF18
:101E1000FD01DC01C0CF13821282D7CF4F925F92B7
:101E20006F927F928F929F92AF92BF92CF92DF92EA
:101E3000EF92FF920F931F93CF93DF938C01009744
:101E400099F4CB01DF91CF911F910F91FF90EF900B
:101E5000DF90CF90BF90AF909F908F907F906F90CA
:101E60005F904F900C94E90DFC01E60FF71F9C0169
:101E700022503109E217F30708F4AEC0D901CD9121
:101E8000DC911197C617D70720F1C530D10578F03E
:101E9000CE0104978617970750F0C61BD70B2297E1
:101EA000C193D1936D937C93CF010E94850EC8019D
:101EB000DF91CF911F910F91FF90EF90DF90CF9026
:101EC000BF90AF909F908F907F906F905F904F905A
:101ED00008955B01AC1ABD0A4C018C0E9D1EA091A9
:101EE0005004B0915104512C412CF12CE12C10974D
:101EF00031F580914E0490914F048815990509F0B1
:101F00005CC04616570608F058C0809116029091A2
:101F10001702009741F48DB79EB740911A02509175
:101F20001B02841B950BE817F90708F055C0F093C6
:101F30004F04E0934E04F90171836083B8CF8D9113
:101F40009C91119712966C90129713967C90139710
:101F5000A815B90559F56C0142E0C40ED11CCA148C
:101F6000DB0420F1AC014A195B09DA0112961597DE
:101F700080F06282738251834083D9016D937C9398
:101F8000E114F10471F0D7011396FC93EE931297CC
:101F90008ECF22968C0F9D1FF90191838083F301D0
:101FA000EFCFF0935104E093500481CF48165906C7
:101FB00008F42C017D01D3019ACFCB010E94E90DD9
:101FC0007C01009749F0AE01B8010E94EF0FC801F3
:101FD0000E94850E87016BCF10E000E068CFFB0107
:101FE000DC0102C001900D9241505040D8F7089595
:101FF000FB01DC0101900D920020E1F70895F894B7
:02200000FFCF10
:1020020042043604000078027802780278027802EC
:10201200780278027802000052048000000000007A
:10202200B0037902BF02FD036E03CE02600367654F
:102032007420002E76616C00627430006230006E93
:1020420030006E3100626B636D643D310070616718
:0A205200652030002E76616C3D0021
:00000001FF
